{"contracts/MultiTokenFaucet.sol":{"MultiTokenFaucet":{"abi":[{"inputs":[{"internalType":"address","name":"initialOwner","type":"address"}],"stateMutability":"nonpayable","type":"constructor"},{"inputs":[],"name":"AlreadyClaimed","type":"error"},{"inputs":[],"name":"InsufficientFaucetBalance","type":"error"},{"inputs":[],"name":"InvalidClaimAmount","type":"error"},{"inputs":[],"name":"InvalidRecipientAddress","type":"error"},{"inputs":[],"name":"InvalidTokenAddress","type":"error"},{"inputs":[],"name":"InvalidWithdrawAmount","type":"error"},{"inputs":[],"name":"NativeTransferFailed","type":"error"},{"inputs":[{"internalType":"address","name":"owner","type":"address"}],"name":"OwnableInvalidOwner","type":"error"},{"inputs":[{"internalType":"address","name":"account","type":"address"}],"name":"OwnableUnauthorizedAccount","type":"error"},{"inputs":[],"name":"ReentrancyGuardReentrantCall","type":"error"},{"inputs":[{"internalType":"address","name":"token","type":"address"}],"name":"SafeERC20FailedOperation","type":"error"},{"inputs":[],"name":"TokenAlreadyDisabled","type":"error"},{"inputs":[],"name":"TokenNotEnabled","type":"error"},{"inputs":[],"name":"UnsupportedToken","type":"error"},{"anonymous":false,"inputs":[{"indexed":true,"internalType":"address","name":"user","type":"address"},{"indexed":true,"internalType":"address","name":"token","type":"address"},{"indexed":false,"internalType":"uint256","name":"amount","type":"uint256"}],"name":"Claimed","type":"event"},{"anonymous":false,"inputs":[{"indexed":true,"internalType":"address","name":"to","type":"address"},{"indexed":false,"internalType":"uint256","name":"amount","type":"uint256"}],"name":"NativeWithdrawn","type":"event"},{"anonymous":false,"inputs":[{"indexed":true,"internalType":"address","name":"previousOwner","type":"address"},{"indexed":true,"internalType":"address","name":"newOwner","type":"address"}],"name":"OwnershipTransferred","type":"event"},{"anonymous":false,"inputs":[{"indexed":true,"internalType":"address","name":"token","type":"address"},{"indexed":false,"internalType":"uint256","name":"claimAmount","type":"uint256"},{"indexed":false,"internalType":"bool","name":"enabled","type":"bool"}],"name":"TokenConfigured","type":"event"},{"anonymous":false,"inputs":[{"indexed":true,"internalType":"address","name":"token","type":"address"}],"name":"TokenDisabled","type":"event"},{"anonymous":false,"inputs":[{"indexed":true,"internalType":"address","name":"token","type":"address"},{"indexed":true,"internalType":"address","name":"to","type":"address"},{"indexed":false,"internalType":"uint256","name":"amount","type":"uint256"}],"name":"TokenWithdrawn","type":"event"},{"inputs":[{"internalType":"address","name":"user","type":"address"},{"internalType":"address","name":"token","type":"address"}],"name":"canClaim","outputs":[{"internalType":"bool","name":"","type":"bool"}],"stateMutability":"view","type":"function"},{"inputs":[{"internalType":"address","name":"token","type":"address"}],"name":"claim","outputs":[],"stateMutability":"nonpayable","type":"function"},{"inputs":[{"internalType":"address","name":"token","type":"address"},{"internalType":"uint256","name":"claimAmount","type":"uint256"},{"internalType":"bool","name":"enabled","type":"bool"}],"name":"configureToken","outputs":[],"stateMutability":"nonpayable","type":"function"},{"inputs":[{"internalType":"address","name":"token","type":"address"}],"name":"disableToken","outputs":[],"stateMutability":"nonpayable","type":"function"},{"inputs":[],"name":"getSupportedTokens","outputs":[{"internalType":"address[]","name":"","type":"address[]"}],"stateMutability":"view","type":"function"},{"inputs":[{"internalType":"address","name":"","type":"address"},{"internalType":"address","name":"","type":"address"}],"name":"hasClaimed","outputs":[{"internalType":"bool","name":"","type":"bool"}],"stateMutability":"view","type":"function"},{"inputs":[],"name":"owner","outputs":[{"internalType":"address","name":"","type":"address"}],"stateMutability":"view","type":"function"},{"inputs":[],"name":"renounceOwnership","outputs":[],"stateMutability":"nonpayable","type":"function"},{"inputs":[{"internalType":"uint256","name":"","type":"uint256"}],"name":"supportedTokens","outputs":[{"internalType":"address","name":"","type":"address"}],"stateMutability":"view","type":"function"},{"inputs":[{"internalType":"address","name":"","type":"address"}],"name":"tokenConfigs","outputs":[{"internalType":"bool","name":"supported","type":"bool"},{"internalType":"bool","name":"enabled","type":"bool"},{"internalType":"uint256","name":"claimAmount","type":"uint256"}],"stateMutability":"view","type":"function"},{"inputs":[{"internalType":"address","name":"newOwner","type":"address"}],"name":"transferOwnership","outputs":[],"stateMutability":"nonpayable","type":"function"},{"inputs":[{"internalType":"address","name":"to","type":"address"},{"internalType":"uint256","name":"amount","type":"uint256"}],"name":"withdrawNative","outputs":[],"stateMutability":"nonpayable","type":"function"},{"inputs":[{"internalType":"address","name":"token","type":"address"},{"internalType":"address","name":"to","type":"address"},{"internalType":"uint256","name":"amount","type":"uint256"}],"name":"withdrawToken","outputs":[],"stateMutability":"nonpayable","type":"function"},{"stateMutability":"payable","type":"receive"}],"evm":{"bytecode":{"linkReferences":{},"object":"608060405234801561001057600080fd5b50604051610f92380380610f9283398101604081905261002f916100e2565b806001600160a01b03811661005e57604051631e4fbdf760e01b81526000600482015260240160405180910390fd5b61006781610092565b5060017f9b779b17422d0df92223018b32b4d1fa46e071723d6817e2486d003becc55f005550610112565b600080546001600160a01b038381166001600160a01b0319831681178455604051919092169283917f8be0079c531659141344cd1fd0a4f28419497f9722a3daafe3b4186f6b6457e09190a35050565b6000602082840312156100f457600080fd5b81516001600160a01b038116811461010b57600080fd5b9392505050565b610e71806101216000396000f3fe6080604052600436106100c65760003560e01c806389266f601161007f578063c625562611610059578063c625562614610269578063ca2d29be14610289578063d3c7c2c7146102a9578063f2fde38b146102cb57600080fd5b806389266f60146101cc5780638da5cb5b14610217578063a617e6531461024957600080fd5b806301e33667146100d257806307b18bde146100f45780631b69dc5f146101145780631e83409a1461017757806323e27a6414610197578063715018a6146101b757600080fd5b366100cd57005b600080fd5b3480156100de57600080fd5b506100f26100ed366004610cbc565b6102eb565b005b34801561010057600080fd5b506100f261010f366004610cf8565b6103c8565b34801561012057600080fd5b5061015561012f366004610d22565b6001602081905260009182526040909120805491015460ff808316926101009004169083565b6040805193151584529115156020840152908201526060015b60405180910390f35b34801561018357600080fd5b506100f2610192366004610d22565b6104d4565b3480156101a357600080fd5b506100f26101b2366004610d22565b6106fa565b3480156101c357600080fd5b506100f26107c3565b3480156101d857600080fd5b506102076101e7366004610d44565b600260209081526000928352604080842090915290825290205460ff1681565b604051901515815260200161016e565b34801561022357600080fd5b506000546001600160a01b03165b6040516001600160a01b03909116815260200161016e565b34801561025557600080fd5b50610207610264366004610d44565b6107d7565b34801561027557600080fd5b50610231610284366004610d77565b6108f5565b34801561029557600080fd5b506100f26102a4366004610d90565b61091f565b3480156102b557600080fd5b506102be610a71565b60405161016e9190610dd5565b3480156102d757600080fd5b506100f26102e6366004610d22565b610ad3565b6102f3610b13565b6001600160a01b03831661031a57604051630f58058360e11b815260040160405180910390fd5b6001600160a01b0382166103415760405163226ccff560e11b815260040160405180910390fd5b8060000361036257604051630db73cdf60e41b815260040160405180910390fd5b6103766001600160a01b0384168383610b40565b816001600160a01b0316836001600160a01b03167f8210728e7c071f615b840ee026032693858fbcd5e5359e67e438c890f59e5620836040516103bb91815260200190565b60405180910390a3505050565b6103d0610b13565b6001600160a01b0382166103f75760405163226ccff560e11b815260040160405180910390fd5b8060000361041857604051630db73cdf60e41b815260040160405180910390fd5b6000826001600160a01b03168260405160006040518083038185875af1925050503d8060008114610465576040519150601f19603f3d011682016040523d82523d6000602084013e61046a565b606091505b505090508061048c57604051633d2cec6f60e21b815260040160405180910390fd5b826001600160a01b03167fc303ca808382409472acbbf899c316cf439f409f6584aae22df86dfa3c9ed504836040516104c791815260200190565b60405180910390a2505050565b6104dc610b7a565b6001600160a01b0381166000908152600160208181526040928390208351606081018552815460ff80821615158084526101009092041615159382019390935292015492820192909252906105445760405163350b944160e11b815260040160405180910390fd5b806020015161056657604051631fcf8c4760e11b815260040160405180910390fd5b3360009081526002602090815260408083206001600160a01b038616845290915290205460ff16156105ab57604051630c8d9eab60e31b815260040160405180910390fd5b6040516370a0823160e01b81523060048201526000906001600160a01b038416906370a0823190602401602060405180830381865afa1580156105f2573d6000803e3d6000fd5b505050506040513d601f19601f820116820180604052508101906106169190610e22565b9050816040015181101561063d576040516325bab55360e01b815260040160405180910390fd5b3360008181526002602090815260408083206001600160a01b038816808552925291829020805460ff191660011790559084015161067b9290610b40565b826001600160a01b0316336001600160a01b03167ff7a40077ff7a04c7e61f6f26fb13774259ddf1b6bce9ecf26a8276cdd399268384604001516040516106c491815260200190565b60405180910390a350506106f760017f9b779b17422d0df92223018b32b4d1fa46e071723d6817e2486d003becc55f0055565b50565b610702610b13565b6001600160a01b03811660009081526001602052604090205460ff1661073b5760405163350b944160e11b815260040160405180910390fd5b6001600160a01b038116600090815260016020526040902054610100900460ff16610779576040516368d8b53560e01b815260040160405180910390fd5b6001600160a01b038116600081815260016020526040808220805461ff0019169055517f1fac2d788f45089e4f2b9e3484b1163143fdeab5eb480ab9a44b459d2dc476a29190a250565b6107cb610b13565b6107d56000610ba8565b565b6001600160a01b03811660009081526001602081815260408084208151606081018352815460ff8082161515808452610100909204161515948201949094529301549083015261082b5760009150506108ef565b806020015161083e5760009150506108ef565b6001600160a01b0380851660009081526002602090815260408083209387168352929052205460ff16156108765760009150506108ef565b6040516370a0823160e01b81523060048201526000906001600160a01b038516906370a0823190602401602060405180830381865afa1580156108bd573d6000803e3d6000fd5b505050506040513d601f19601f820116820180604052508101906108e19190610e22565b604090920151909110159150505b92915050565b6003818154811061090557600080fd5b6000918252602090912001546001600160a01b0316905081565b610927610b13565b6001600160a01b03831661094e57604051630f58058360e11b815260040160405180910390fd5b8160000361096f5760405163843ce46b60e01b815260040160405180910390fd5b6001600160a01b03831660009081526001602052604090205460ff166109db57600380546001810182556000919091527fc2575a0e9e593c00f959f8c92f12db2869c3395a3b0502d05e2516446f71f85b0180546001600160a01b0319166001600160a01b0385161790555b60408051606081018252600180825283151560208084018281528486018881526001600160a01b038a16600081815286855288902096518754935161ffff1990941690151561ff0019161761010093151593909302929092178655519490930193909355835186815292830152917fea38537c2477bc273187c7158c75d0afe60cfcd0a107a8249105eb00b8d0750291016104c7565b60606003805480602002602001604051908101604052809291908181526020018280548015610ac957602002820191906000526020600020905b81546001600160a01b03168152600190910190602001808311610aab575b5050505050905090565b610adb610b13565b6001600160a01b038116610b0a57604051631e4fbdf760e01b8152600060048201526024015b60405180910390fd5b6106f781610ba8565b6000546001600160a01b031633146107d55760405163118cdaa760e01b8152336004820152602401610b01565b610b4d8383836001610bf8565b610b7557604051635274afe760e01b81526001600160a01b0384166004820152602401610b01565b505050565b610b82610c5e565b60027f9b779b17422d0df92223018b32b4d1fa46e071723d6817e2486d003becc55f0055565b600080546001600160a01b038381166001600160a01b0319831681178455604051919092169283917f8be0079c531659141344cd1fd0a4f28419497f9722a3daafe3b4186f6b6457e09190a35050565b60405163a9059cbb60e01b60008181526001600160a01b038616600452602485905291602083604481808b5af192506001600051148316610c52578383151615610c45573d6000823e3d81fd5b6000873b113d1516831692505b60405250949350505050565b7f9b779b17422d0df92223018b32b4d1fa46e071723d6817e2486d003becc55f00546002036107d557604051633ee5aeb560e01b815260040160405180910390fd5b80356001600160a01b0381168114610cb757600080fd5b919050565b600080600060608486031215610cd157600080fd5b610cda84610ca0565b9250610ce860208501610ca0565b9150604084013590509250925092565b60008060408385031215610d0b57600080fd5b610d1483610ca0565b946020939093013593505050565b600060208284031215610d3457600080fd5b610d3d82610ca0565b9392505050565b60008060408385031215610d5757600080fd5b610d6083610ca0565b9150610d6e60208401610ca0565b90509250929050565b600060208284031215610d8957600080fd5b5035919050565b600080600060608486031215610da557600080fd5b610dae84610ca0565b92506020840135915060408401358015158114610dca57600080fd5b809150509250925092565b6020808252825182820181905260009190848201906040850190845b81811015610e165783516001600160a01b031683529284019291840191600101610df1565b50909695505050505050565b600060208284031215610e3457600080fd5b505191905056fea2646970667358221220afccbea8b30b8ceb09da210593b8154c5f55b34cf8e8147c822563cfae42ce5564736f6c63430008180033","opcodes":"PUSH1 0x80 PUSH1 0x40 MSTORE CALLVALUE DUP1 ISZERO PUSH2 0x10 JUMPI PUSH1 0x0 DUP1 REVERT JUMPDEST POP PUSH1 0x40 MLOAD PUSH2 0xF92 CODESIZE SUB DUP1 PUSH2 0xF92 DUP4 CODECOPY DUP2 ADD PUSH1 0x40 DUP2 SWAP1 MSTORE PUSH2 0x2F SWAP2 PUSH2 0xE2 JUMP JUMPDEST DUP1 PUSH1 0x1 PUSH1 0x1 PUSH1 0xA0 SHL SUB DUP2 AND PUSH2 0x5E JUMPI PUSH1 0x40 MLOAD PUSH4 0x1E4FBDF7 PUSH1 0xE0 SHL DUP2 MSTORE PUSH1 0x0 PUSH1 0x4 DUP3 ADD MSTORE PUSH1 0x24 ADD PUSH1 0x40 MLOAD DUP1 SWAP2 SUB SWAP1 REVERT JUMPDEST PUSH2 0x67 DUP2 PUSH2 0x92 JUMP JUMPDEST POP PUSH1 0x1 PUSH32 0x9B779B17422D0DF92223018B32B4D1FA46E071723D6817E2486D003BECC55F00 SSTORE POP PUSH2 0x112 JUMP JUMPDEST PUSH1 0x0 DUP1 SLOAD PUSH1 0x1 PUSH1 0x1 PUSH1 0xA0 SHL SUB DUP4 DUP2 AND PUSH1 0x1 PUSH1 0x1 PUSH1 0xA0 SHL SUB NOT DUP4 AND DUP2 OR DUP5 SSTORE PUSH1 0x40 MLOAD SWAP2 SWAP1 SWAP3 AND SWAP3 DUP4 SWAP2 PUSH32 0x8BE0079C531659141344CD1FD0A4F28419497F9722A3DAAFE3B4186F6B6457E0 SWAP2 SWAP1 LOG3 POP POP JUMP JUMPDEST PUSH1 0x0 PUSH1 0x20 DUP3 DUP5 SUB SLT ISZERO PUSH2 0xF4 JUMPI PUSH1 0x0 DUP1 REVERT JUMPDEST DUP2 MLOAD PUSH1 0x1 PUSH1 0x1 PUSH1 0xA0 SHL SUB DUP2 AND DUP2 EQ PUSH2 0x10B JUMPI PUSH1 0x0 DUP1 REVERT JUMPDEST SWAP4 SWAP3 POP POP POP JUMP JUMPDEST PUSH2 0xE71 DUP1 PUSH2 0x121 PUSH1 0x0 CODECOPY PUSH1 0x0 RETURN INVALID PUSH1 0x80 PUSH1 0x40 MSTORE PUSH1 0x4 CALLDATASIZE LT PUSH2 0xC6 JUMPI PUSH1 0x0 CALLDATALOAD PUSH1 0xE0 SHR DUP1 PUSH4 0x89266F60 GT PUSH2 0x7F JUMPI DUP1 PUSH4 0xC6255626 GT PUSH2 0x59 JUMPI DUP1 PUSH4 0xC6255626 EQ PUSH2 0x269 JUMPI DUP1 PUSH4 0xCA2D29BE EQ PUSH2 0x289 JUMPI DUP1 PUSH4 0xD3C7C2C7 EQ PUSH2 0x2A9 JUMPI DUP1 PUSH4 0xF2FDE38B EQ PUSH2 0x2CB JUMPI PUSH1 0x0 DUP1 REVERT JUMPDEST DUP1 PUSH4 0x89266F60 EQ PUSH2 0x1CC JUMPI DUP1 PUSH4 0x8DA5CB5B EQ PUSH2 0x217 JUMPI DUP1 PUSH4 0xA617E653 EQ PUSH2 0x249 JUMPI PUSH1 0x0 DUP1 REVERT JUMPDEST DUP1 PUSH4 0x1E33667 EQ PUSH2 0xD2 JUMPI DUP1 PUSH4 0x7B18BDE EQ PUSH2 0xF4 JUMPI DUP1 PUSH4 0x1B69DC5F EQ PUSH2 0x114 JUMPI DUP1 PUSH4 0x1E83409A EQ PUSH2 0x177 JUMPI DUP1 PUSH4 0x23E27A64 EQ PUSH2 0x197 JUMPI DUP1 PUSH4 0x715018A6 EQ PUSH2 0x1B7 JUMPI PUSH1 0x0 DUP1 REVERT JUMPDEST CALLDATASIZE PUSH2 0xCD JUMPI STOP JUMPDEST PUSH1 0x0 DUP1 REVERT JUMPDEST CALLVALUE DUP1 ISZERO PUSH2 0xDE JUMPI PUSH1 0x0 DUP1 REVERT JUMPDEST POP PUSH2 0xF2 PUSH2 0xED CALLDATASIZE PUSH1 0x4 PUSH2 0xCBC JUMP JUMPDEST PUSH2 0x2EB JUMP JUMPDEST STOP JUMPDEST CALLVALUE DUP1 ISZERO PUSH2 0x100 JUMPI PUSH1 0x0 DUP1 REVERT JUMPDEST POP PUSH2 0xF2 PUSH2 0x10F CALLDATASIZE PUSH1 0x4 PUSH2 0xCF8 JUMP JUMPDEST PUSH2 0x3C8 JUMP JUMPDEST CALLVALUE DUP1 ISZERO PUSH2 0x120 JUMPI PUSH1 0x0 DUP1 REVERT JUMPDEST POP PUSH2 0x155 PUSH2 0x12F CALLDATASIZE PUSH1 0x4 PUSH2 0xD22 JUMP JUMPDEST PUSH1 0x1 PUSH1 0x20 DUP2 SWAP1 MSTORE PUSH1 0x0 SWAP2 DUP3 MSTORE PUSH1 0x40 SWAP1 SWAP2 KECCAK256 DUP1 SLOAD SWAP2 ADD SLOAD PUSH1 0xFF DUP1 DUP4 AND SWAP3 PUSH2 0x100 SWAP1 DIV AND SWAP1 DUP4 JUMP JUMPDEST PUSH1 0x40 DUP1 MLOAD SWAP4 ISZERO ISZERO DUP5 MSTORE SWAP2 ISZERO ISZERO PUSH1 0x20 DUP5 ADD MSTORE SWAP1 DUP3 ADD MSTORE PUSH1 0x60 ADD JUMPDEST PUSH1 0x40 MLOAD DUP1 SWAP2 SUB SWAP1 RETURN JUMPDEST CALLVALUE DUP1 ISZERO PUSH2 0x183 JUMPI PUSH1 0x0 DUP1 REVERT JUMPDEST POP PUSH2 0xF2 PUSH2 0x192 CALLDATASIZE PUSH1 0x4 PUSH2 0xD22 JUMP JUMPDEST PUSH2 0x4D4 JUMP JUMPDEST CALLVALUE DUP1 ISZERO PUSH2 0x1A3 JUMPI PUSH1 0x0 DUP1 REVERT JUMPDEST POP PUSH2 0xF2 PUSH2 0x1B2 CALLDATASIZE PUSH1 0x4 PUSH2 0xD22 JUMP JUMPDEST PUSH2 0x6FA JUMP JUMPDEST CALLVALUE DUP1 ISZERO PUSH2 0x1C3 JUMPI PUSH1 0x0 DUP1 REVERT JUMPDEST POP PUSH2 0xF2 PUSH2 0x7C3 JUMP JUMPDEST CALLVALUE DUP1 ISZERO PUSH2 0x1D8 JUMPI PUSH1 0x0 DUP1 REVERT JUMPDEST POP PUSH2 0x207 PUSH2 0x1E7 CALLDATASIZE PUSH1 0x4 PUSH2 0xD44 JUMP JUMPDEST PUSH1 0x2 PUSH1 0x20 SWAP1 DUP2 MSTORE PUSH1 0x0 SWAP3 DUP4 MSTORE PUSH1 0x40 DUP1 DUP5 KECCAK256 SWAP1 SWAP2 MSTORE SWAP1 DUP3 MSTORE SWAP1 KECCAK256 SLOAD PUSH1 0xFF AND DUP2 JUMP JUMPDEST PUSH1 0x40 MLOAD SWAP1 ISZERO ISZERO DUP2 MSTORE PUSH1 0x20 ADD PUSH2 0x16E JUMP JUMPDEST CALLVALUE DUP1 ISZERO PUSH2 0x223 JUMPI PUSH1 0x0 DUP1 REVERT JUMPDEST POP PUSH1 0x0 SLOAD PUSH1 0x1 PUSH1 0x1 PUSH1 0xA0 SHL SUB AND JUMPDEST PUSH1 0x40 MLOAD PUSH1 0x1 PUSH1 0x1 PUSH1 0xA0 SHL SUB SWAP1 SWAP2 AND DUP2 MSTORE PUSH1 0x20 ADD PUSH2 0x16E JUMP JUMPDEST CALLVALUE DUP1 ISZERO PUSH2 0x255 JUMPI PUSH1 0x0 DUP1 REVERT JUMPDEST POP PUSH2 0x207 PUSH2 0x264 CALLDATASIZE PUSH1 0x4 PUSH2 0xD44 JUMP JUMPDEST PUSH2 0x7D7 JUMP JUMPDEST CALLVALUE DUP1 ISZERO PUSH2 0x275 JUMPI PUSH1 0x0 DUP1 REVERT JUMPDEST POP PUSH2 0x231 PUSH2 0x284 CALLDATASIZE PUSH1 0x4 PUSH2 0xD77 JUMP JUMPDEST PUSH2 0x8F5 JUMP JUMPDEST CALLVALUE DUP1 ISZERO PUSH2 0x295 JUMPI PUSH1 0x0 DUP1 REVERT JUMPDEST POP PUSH2 0xF2 PUSH2 0x2A4 CALLDATASIZE PUSH1 0x4 PUSH2 0xD90 JUMP JUMPDEST PUSH2 0x91F JUMP JUMPDEST CALLVALUE DUP1 ISZERO PUSH2 0x2B5 JUMPI PUSH1 0x0 DUP1 REVERT JUMPDEST POP PUSH2 0x2BE PUSH2 0xA71 JUMP JUMPDEST PUSH1 0x40 MLOAD PUSH2 0x16E SWAP2 SWAP1 PUSH2 0xDD5 JUMP JUMPDEST CALLVALUE DUP1 ISZERO PUSH2 0x2D7 JUMPI PUSH1 0x0 DUP1 REVERT JUMPDEST POP PUSH2 0xF2 PUSH2 0x2E6 CALLDATASIZE PUSH1 0x4 PUSH2 0xD22 JUMP JUMPDEST PUSH2 0xAD3 JUMP JUMPDEST PUSH2 0x2F3 PUSH2 0xB13 JUMP JUMPDEST PUSH1 0x1 PUSH1 0x1 PUSH1 0xA0 SHL SUB DUP4 AND PUSH2 0x31A JUMPI PUSH1 0x40 MLOAD PUSH4 0xF580583 PUSH1 0xE1 SHL DUP2 MSTORE PUSH1 0x4 ADD PUSH1 0x40 MLOAD DUP1 SWAP2 SUB SWAP1 REVERT JUMPDEST PUSH1 0x1 PUSH1 0x1 PUSH1 0xA0 SHL SUB DUP3 AND PUSH2 0x341 JUMPI PUSH1 0x40 MLOAD PUSH4 0x226CCFF5 PUSH1 0xE1 SHL DUP2 MSTORE PUSH1 0x4 ADD PUSH1 0x40 MLOAD DUP1 SWAP2 SUB SWAP1 REVERT JUMPDEST DUP1 PUSH1 0x0 SUB PUSH2 0x362 JUMPI PUSH1 0x40 MLOAD PUSH4 0xDB73CDF PUSH1 0xE4 SHL DUP2 MSTORE PUSH1 0x4 ADD PUSH1 0x40 MLOAD DUP1 SWAP2 SUB SWAP1 REVERT JUMPDEST PUSH2 0x376 PUSH1 0x1 PUSH1 0x1 PUSH1 0xA0 SHL SUB DUP5 AND DUP4 DUP4 PUSH2 0xB40 JUMP JUMPDEST DUP2 PUSH1 0x1 PUSH1 0x1 PUSH1 0xA0 SHL SUB AND DUP4 PUSH1 0x1 PUSH1 0x1 PUSH1 0xA0 SHL SUB AND PUSH32 0x8210728E7C071F615B840EE026032693858FBCD5E5359E67E438C890F59E5620 DUP4 PUSH1 0x40 MLOAD PUSH2 0x3BB SWAP2 DUP2 MSTORE PUSH1 0x20 ADD SWAP1 JUMP JUMPDEST PUSH1 0x40 MLOAD DUP1 SWAP2 SUB SWAP1 LOG3 POP POP POP JUMP JUMPDEST PUSH2 0x3D0 PUSH2 0xB13 JUMP JUMPDEST PUSH1 0x1 PUSH1 0x1 PUSH1 0xA0 SHL SUB DUP3 AND PUSH2 0x3F7 JUMPI PUSH1 0x40 MLOAD PUSH4 0x226CCFF5 PUSH1 0xE1 SHL DUP2 MSTORE PUSH1 0x4 ADD PUSH1 0x40 MLOAD DUP1 SWAP2 SUB SWAP1 REVERT JUMPDEST DUP1 PUSH1 0x0 SUB PUSH2 0x418 JUMPI PUSH1 0x40 MLOAD PUSH4 0xDB73CDF PUSH1 0xE4 SHL DUP2 MSTORE PUSH1 0x4 ADD PUSH1 0x40 MLOAD DUP1 SWAP2 SUB SWAP1 REVERT JUMPDEST PUSH1 0x0 DUP3 PUSH1 0x1 PUSH1 0x1 PUSH1 0xA0 SHL SUB AND DUP3 PUSH1 0x40 MLOAD PUSH1 0x0 PUSH1 0x40 MLOAD DUP1 DUP4 SUB DUP2 DUP6 DUP8 GAS CALL SWAP3 POP POP POP RETURNDATASIZE DUP1 PUSH1 0x0 DUP2 EQ PUSH2 0x465 JUMPI PUSH1 0x40 MLOAD SWAP2 POP PUSH1 0x1F NOT PUSH1 0x3F RETURNDATASIZE ADD AND DUP3 ADD PUSH1 0x40 MSTORE RETURNDATASIZE DUP3 MSTORE RETURNDATASIZE PUSH1 0x0 PUSH1 0x20 DUP5 ADD RETURNDATACOPY PUSH2 0x46A JUMP JUMPDEST PUSH1 0x60 SWAP2 POP JUMPDEST POP POP SWAP1 POP DUP1 PUSH2 0x48C JUMPI PUSH1 0x40 MLOAD PUSH4 0x3D2CEC6F PUSH1 0xE2 SHL DUP2 MSTORE PUSH1 0x4 ADD PUSH1 0x40 MLOAD DUP1 SWAP2 SUB SWAP1 REVERT JUMPDEST DUP3 PUSH1 0x1 PUSH1 0x1 PUSH1 0xA0 SHL SUB AND PUSH32 0xC303CA808382409472ACBBF899C316CF439F409F6584AAE22DF86DFA3C9ED504 DUP4 PUSH1 0x40 MLOAD PUSH2 0x4C7 SWAP2 DUP2 MSTORE PUSH1 0x20 ADD SWAP1 JUMP JUMPDEST PUSH1 0x40 MLOAD DUP1 SWAP2 SUB SWAP1 LOG2 POP POP POP JUMP JUMPDEST PUSH2 0x4DC PUSH2 0xB7A JUMP JUMPDEST PUSH1 0x1 PUSH1 0x1 PUSH1 0xA0 SHL SUB DUP2 AND PUSH1 0x0 SWAP1 DUP2 MSTORE PUSH1 0x1 PUSH1 0x20 DUP2 DUP2 MSTORE PUSH1 0x40 SWAP3 DUP4 SWAP1 KECCAK256 DUP4 MLOAD PUSH1 0x60 DUP2 ADD DUP6 MSTORE DUP2 SLOAD PUSH1 0xFF DUP1 DUP3 AND ISZERO ISZERO DUP1 DUP5 MSTORE PUSH2 0x100 SWAP1 SWAP3 DIV AND ISZERO ISZERO SWAP4 DUP3 ADD SWAP4 SWAP1 SWAP4 MSTORE SWAP3 ADD SLOAD SWAP3 DUP3 ADD SWAP3 SWAP1 SWAP3 MSTORE SWAP1 PUSH2 0x544 JUMPI PUSH1 0x40 MLOAD PUSH4 0x350B9441 PUSH1 0xE1 SHL DUP2 MSTORE PUSH1 0x4 ADD PUSH1 0x40 MLOAD DUP1 SWAP2 SUB SWAP1 REVERT JUMPDEST DUP1 PUSH1 0x20 ADD MLOAD PUSH2 0x566 JUMPI PUSH1 0x40 MLOAD PUSH4 0x1FCF8C47 PUSH1 0xE1 SHL DUP2 MSTORE PUSH1 0x4 ADD PUSH1 0x40 MLOAD DUP1 SWAP2 SUB SWAP1 REVERT JUMPDEST CALLER PUSH1 0x0 SWAP1 DUP2 MSTORE PUSH1 0x2 PUSH1 0x20 SWAP1 DUP2 MSTORE PUSH1 0x40 DUP1 DUP4 KECCAK256 PUSH1 0x1 PUSH1 0x1 PUSH1 0xA0 SHL SUB DUP7 AND DUP5 MSTORE SWAP1 SWAP2 MSTORE SWAP1 KECCAK256 SLOAD PUSH1 0xFF AND ISZERO PUSH2 0x5AB JUMPI PUSH1 0x40 MLOAD PUSH4 0xC8D9EAB PUSH1 0xE3 SHL DUP2 MSTORE PUSH1 0x4 ADD PUSH1 0x40 MLOAD DUP1 SWAP2 SUB SWAP1 REVERT JUMPDEST PUSH1 0x40 MLOAD PUSH4 0x70A08231 PUSH1 0xE0 SHL DUP2 MSTORE ADDRESS PUSH1 0x4 DUP3 ADD MSTORE PUSH1 0x0 SWAP1 PUSH1 0x1 PUSH1 0x1 PUSH1 0xA0 SHL SUB DUP5 AND SWAP1 PUSH4 0x70A08231 SWAP1 PUSH1 0x24 ADD PUSH1 0x20 PUSH1 0x40 MLOAD DUP1 DUP4 SUB DUP2 DUP7 GAS STATICCALL ISZERO DUP1 ISZERO PUSH2 0x5F2 JUMPI RETURNDATASIZE PUSH1 0x0 DUP1 RETURNDATACOPY RETURNDATASIZE PUSH1 0x0 REVERT JUMPDEST POP POP POP POP PUSH1 0x40 MLOAD RETURNDATASIZE PUSH1 0x1F NOT PUSH1 0x1F DUP3 ADD AND DUP3 ADD DUP1 PUSH1 0x40 MSTORE POP DUP2 ADD SWAP1 PUSH2 0x616 SWAP2 SWAP1 PUSH2 0xE22 JUMP JUMPDEST SWAP1 POP DUP2 PUSH1 0x40 ADD MLOAD DUP2 LT ISZERO PUSH2 0x63D JUMPI PUSH1 0x40 MLOAD PUSH4 0x25BAB553 PUSH1 0xE0 SHL DUP2 MSTORE PUSH1 0x4 ADD PUSH1 0x40 MLOAD DUP1 SWAP2 SUB SWAP1 REVERT JUMPDEST CALLER PUSH1 0x0 DUP2 DUP2 MSTORE PUSH1 0x2 PUSH1 0x20 SWAP1 DUP2 MSTORE PUSH1 0x40 DUP1 DUP4 KECCAK256 PUSH1 0x1 PUSH1 0x1 PUSH1 0xA0 SHL SUB DUP9 AND DUP1 DUP6 MSTORE SWAP3 MSTORE SWAP2 DUP3 SWAP1 KECCAK256 DUP1 SLOAD PUSH1 0xFF NOT AND PUSH1 0x1 OR SWAP1 SSTORE SWAP1 DUP5 ADD MLOAD PUSH2 0x67B SWAP3 SWAP1 PUSH2 0xB40 JUMP JUMPDEST DUP3 PUSH1 0x1 PUSH1 0x1 PUSH1 0xA0 SHL SUB AND CALLER PUSH1 0x1 PUSH1 0x1 PUSH1 0xA0 SHL SUB AND PUSH32 0xF7A40077FF7A04C7E61F6F26FB13774259DDF1B6BCE9ECF26A8276CDD3992683 DUP5 PUSH1 0x40 ADD MLOAD PUSH1 0x40 MLOAD PUSH2 0x6C4 SWAP2 DUP2 MSTORE PUSH1 0x20 ADD SWAP1 JUMP JUMPDEST PUSH1 0x40 MLOAD DUP1 SWAP2 SUB SWAP1 LOG3 POP POP PUSH2 0x6F7 PUSH1 0x1 PUSH32 0x9B779B17422D0DF92223018B32B4D1FA46E071723D6817E2486D003BECC55F00 SSTORE JUMP JUMPDEST POP JUMP JUMPDEST PUSH2 0x702 PUSH2 0xB13 JUMP JUMPDEST PUSH1 0x1 PUSH1 0x1 PUSH1 0xA0 SHL SUB DUP2 AND PUSH1 0x0 SWAP1 DUP2 MSTORE PUSH1 0x1 PUSH1 0x20 MSTORE PUSH1 0x40 SWAP1 KECCAK256 SLOAD PUSH1 0xFF AND PUSH2 0x73B JUMPI PUSH1 0x40 MLOAD PUSH4 0x350B9441 PUSH1 0xE1 SHL DUP2 MSTORE PUSH1 0x4 ADD PUSH1 0x40 MLOAD DUP1 SWAP2 SUB SWAP1 REVERT JUMPDEST PUSH1 0x1 PUSH1 0x1 PUSH1 0xA0 SHL SUB DUP2 AND PUSH1 0x0 SWAP1 DUP2 MSTORE PUSH1 0x1 PUSH1 0x20 MSTORE PUSH1 0x40 SWAP1 KECCAK256 SLOAD PUSH2 0x100 SWAP1 DIV PUSH1 0xFF AND PUSH2 0x779 JUMPI PUSH1 0x40 MLOAD PUSH4 0x68D8B535 PUSH1 0xE0 SHL DUP2 MSTORE PUSH1 0x4 ADD PUSH1 0x40 MLOAD DUP1 SWAP2 SUB SWAP1 REVERT JUMPDEST PUSH1 0x1 PUSH1 0x1 PUSH1 0xA0 SHL SUB DUP2 AND PUSH1 0x0 DUP2 DUP2 MSTORE PUSH1 0x1 PUSH1 0x20 MSTORE PUSH1 0x40 DUP1 DUP3 KECCAK256 DUP1 SLOAD PUSH2 0xFF00 NOT AND SWAP1 SSTORE MLOAD PUSH32 0x1FAC2D788F45089E4F2B9E3484B1163143FDEAB5EB480AB9A44B459D2DC476A2 SWAP2 SWAP1 LOG2 POP JUMP JUMPDEST PUSH2 0x7CB PUSH2 0xB13 JUMP JUMPDEST PUSH2 0x7D5 PUSH1 0x0 PUSH2 0xBA8 JUMP JUMPDEST JUMP JUMPDEST PUSH1 0x1 PUSH1 0x1 PUSH1 0xA0 SHL SUB DUP2 AND PUSH1 0x0 SWAP1 DUP2 MSTORE PUSH1 0x1 PUSH1 0x20 DUP2 DUP2 MSTORE PUSH1 0x40 DUP1 DUP5 KECCAK256 DUP2 MLOAD PUSH1 0x60 DUP2 ADD DUP4 MSTORE DUP2 SLOAD PUSH1 0xFF DUP1 DUP3 AND ISZERO ISZERO DUP1 DUP5 MSTORE PUSH2 0x100 SWAP1 SWAP3 DIV AND ISZERO ISZERO SWAP5 DUP3 ADD SWAP5 SWAP1 SWAP5 MSTORE SWAP4 ADD SLOAD SWAP1 DUP4 ADD MSTORE PUSH2 0x82B JUMPI PUSH1 0x0 SWAP2 POP POP PUSH2 0x8EF JUMP JUMPDEST DUP1 PUSH1 0x20 ADD MLOAD PUSH2 0x83E JUMPI PUSH1 0x0 SWAP2 POP POP PUSH2 0x8EF JUMP JUMPDEST PUSH1 0x1 PUSH1 0x1 PUSH1 0xA0 SHL SUB DUP1 DUP6 AND PUSH1 0x0 SWAP1 DUP2 MSTORE PUSH1 0x2 PUSH1 0x20 SWAP1 DUP2 MSTORE PUSH1 0x40 DUP1 DUP4 KECCAK256 SWAP4 DUP8 AND DUP4 MSTORE SWAP3 SWAP1 MSTORE KECCAK256 SLOAD PUSH1 0xFF AND ISZERO PUSH2 0x876 JUMPI PUSH1 0x0 SWAP2 POP POP PUSH2 0x8EF JUMP JUMPDEST PUSH1 0x40 MLOAD PUSH4 0x70A08231 PUSH1 0xE0 SHL DUP2 MSTORE ADDRESS PUSH1 0x4 DUP3 ADD MSTORE PUSH1 0x0 SWAP1 PUSH1 0x1 PUSH1 0x1 PUSH1 0xA0 SHL SUB DUP6 AND SWAP1 PUSH4 0x70A08231 SWAP1 PUSH1 0x24 ADD PUSH1 0x20 PUSH1 0x40 MLOAD DUP1 DUP4 SUB DUP2 DUP7 GAS STATICCALL ISZERO DUP1 ISZERO PUSH2 0x8BD JUMPI RETURNDATASIZE PUSH1 0x0 DUP1 RETURNDATACOPY RETURNDATASIZE PUSH1 0x0 REVERT JUMPDEST POP POP POP POP PUSH1 0x40 MLOAD RETURNDATASIZE PUSH1 0x1F NOT PUSH1 0x1F DUP3 ADD AND DUP3 ADD DUP1 PUSH1 0x40 MSTORE POP DUP2 ADD SWAP1 PUSH2 0x8E1 SWAP2 SWAP1 PUSH2 0xE22 JUMP JUMPDEST PUSH1 0x40 SWAP1 SWAP3 ADD MLOAD SWAP1 SWAP2 LT ISZERO SWAP2 POP POP JUMPDEST SWAP3 SWAP2 POP POP JUMP JUMPDEST PUSH1 0x3 DUP2 DUP2 SLOAD DUP2 LT PUSH2 0x905 JUMPI PUSH1 0x0 DUP1 REVERT JUMPDEST PUSH1 0x0 SWAP2 DUP3 MSTORE PUSH1 0x20 SWAP1 SWAP2 KECCAK256 ADD SLOAD PUSH1 0x1 PUSH1 0x1 PUSH1 0xA0 SHL SUB AND SWAP1 POP DUP2 JUMP JUMPDEST PUSH2 0x927 PUSH2 0xB13 JUMP JUMPDEST PUSH1 0x1 PUSH1 0x1 PUSH1 0xA0 SHL SUB DUP4 AND PUSH2 0x94E JUMPI PUSH1 0x40 MLOAD PUSH4 0xF580583 PUSH1 0xE1 SHL DUP2 MSTORE PUSH1 0x4 ADD PUSH1 0x40 MLOAD DUP1 SWAP2 SUB SWAP1 REVERT JUMPDEST DUP2 PUSH1 0x0 SUB PUSH2 0x96F JUMPI PUSH1 0x40 MLOAD PUSH4 0x843CE46B PUSH1 0xE0 SHL DUP2 MSTORE PUSH1 0x4 ADD PUSH1 0x40 MLOAD DUP1 SWAP2 SUB SWAP1 REVERT JUMPDEST PUSH1 0x1 PUSH1 0x1 PUSH1 0xA0 SHL SUB DUP4 AND PUSH1 0x0 SWAP1 DUP2 MSTORE PUSH1 0x1 PUSH1 0x20 MSTORE PUSH1 0x40 SWAP1 KECCAK256 SLOAD PUSH1 0xFF AND PUSH2 0x9DB JUMPI PUSH1 0x3 DUP1 SLOAD PUSH1 0x1 DUP2 ADD DUP3 SSTORE PUSH1 0x0 SWAP2 SWAP1 SWAP2 MSTORE PUSH32 0xC2575A0E9E593C00F959F8C92F12DB2869C3395A3B0502D05E2516446F71F85B ADD DUP1 SLOAD PUSH1 0x1 PUSH1 0x1 PUSH1 0xA0 SHL SUB NOT AND PUSH1 0x1 PUSH1 0x1 PUSH1 0xA0 SHL SUB DUP6 AND OR SWAP1 SSTORE JUMPDEST PUSH1 0x40 DUP1 MLOAD PUSH1 0x60 DUP2 ADD DUP3 MSTORE PUSH1 0x1 DUP1 DUP3 MSTORE DUP4 ISZERO ISZERO PUSH1 0x20 DUP1 DUP5 ADD DUP3 DUP2 MSTORE DUP5 DUP7 ADD DUP9 DUP2 MSTORE PUSH1 0x1 PUSH1 0x1 PUSH1 0xA0 SHL SUB DUP11 AND PUSH1 0x0 DUP2 DUP2 MSTORE DUP7 DUP6 MSTORE DUP9 SWAP1 KECCAK256 SWAP7 MLOAD DUP8 SLOAD SWAP4 MLOAD PUSH2 0xFFFF NOT SWAP1 SWAP5 AND SWAP1 ISZERO ISZERO PUSH2 0xFF00 NOT AND OR PUSH2 0x100 SWAP4 ISZERO ISZERO SWAP4 SWAP1 SWAP4 MUL SWAP3 SWAP1 SWAP3 OR DUP7 SSTORE MLOAD SWAP5 SWAP1 SWAP4 ADD SWAP4 SWAP1 SWAP4 SSTORE DUP4 MLOAD DUP7 DUP2 MSTORE SWAP3 DUP4 ADD MSTORE SWAP2 PUSH32 0xEA38537C2477BC273187C7158C75D0AFE60CFCD0A107A8249105EB00B8D07502 SWAP2 ADD PUSH2 0x4C7 JUMP JUMPDEST PUSH1 0x60 PUSH1 0x3 DUP1 SLOAD DUP1 PUSH1 0x20 MUL PUSH1 0x20 ADD PUSH1 0x40 MLOAD SWAP1 DUP2 ADD PUSH1 0x40 MSTORE DUP1 SWAP3 SWAP2 SWAP1 DUP2 DUP2 MSTORE PUSH1 0x20 ADD DUP3 DUP1 SLOAD DUP1 ISZERO PUSH2 0xAC9 JUMPI PUSH1 0x20 MUL DUP3 ADD SWAP2 SWAP1 PUSH1 0x0 MSTORE PUSH1 0x20 PUSH1 0x0 KECCAK256 SWAP1 JUMPDEST DUP2 SLOAD PUSH1 0x1 PUSH1 0x1 PUSH1 0xA0 SHL SUB AND DUP2 MSTORE PUSH1 0x1 SWAP1 SWAP2 ADD SWAP1 PUSH1 0x20 ADD DUP1 DUP4 GT PUSH2 0xAAB JUMPI JUMPDEST POP POP POP POP POP SWAP1 POP SWAP1 JUMP JUMPDEST PUSH2 0xADB PUSH2 0xB13 JUMP JUMPDEST PUSH1 0x1 PUSH1 0x1 PUSH1 0xA0 SHL SUB DUP2 AND PUSH2 0xB0A JUMPI PUSH1 0x40 MLOAD PUSH4 0x1E4FBDF7 PUSH1 0xE0 SHL DUP2 MSTORE PUSH1 0x0 PUSH1 0x4 DUP3 ADD MSTORE PUSH1 0x24 ADD JUMPDEST PUSH1 0x40 MLOAD DUP1 SWAP2 SUB SWAP1 REVERT JUMPDEST PUSH2 0x6F7 DUP2 PUSH2 0xBA8 JUMP JUMPDEST PUSH1 0x0 SLOAD PUSH1 0x1 PUSH1 0x1 PUSH1 0xA0 SHL SUB AND CALLER EQ PUSH2 0x7D5 JUMPI PUSH1 0x40 MLOAD PUSH4 0x118CDAA7 PUSH1 0xE0 SHL DUP2 MSTORE CALLER PUSH1 0x4 DUP3 ADD MSTORE PUSH1 0x24 ADD PUSH2 0xB01 JUMP JUMPDEST PUSH2 0xB4D DUP4 DUP4 DUP4 PUSH1 0x1 PUSH2 0xBF8 JUMP JUMPDEST PUSH2 0xB75 JUMPI PUSH1 0x40 MLOAD PUSH4 0x5274AFE7 PUSH1 0xE0 SHL DUP2 MSTORE PUSH1 0x1 PUSH1 0x1 PUSH1 0xA0 SHL SUB DUP5 AND PUSH1 0x4 DUP3 ADD MSTORE PUSH1 0x24 ADD PUSH2 0xB01 JUMP JUMPDEST POP POP POP JUMP JUMPDEST PUSH2 0xB82 PUSH2 0xC5E JUMP JUMPDEST PUSH1 0x2 PUSH32 0x9B779B17422D0DF92223018B32B4D1FA46E071723D6817E2486D003BECC55F00 SSTORE JUMP JUMPDEST PUSH1 0x0 DUP1 SLOAD PUSH1 0x1 PUSH1 0x1 PUSH1 0xA0 SHL SUB DUP4 DUP2 AND PUSH1 0x1 PUSH1 0x1 PUSH1 0xA0 SHL SUB NOT DUP4 AND DUP2 OR DUP5 SSTORE PUSH1 0x40 MLOAD SWAP2 SWAP1 SWAP3 AND SWAP3 DUP4 SWAP2 PUSH32 0x8BE0079C531659141344CD1FD0A4F28419497F9722A3DAAFE3B4186F6B6457E0 SWAP2 SWAP1 LOG3 POP POP JUMP JUMPDEST PUSH1 0x40 MLOAD PUSH4 0xA9059CBB PUSH1 0xE0 SHL PUSH1 0x0 DUP2 DUP2 MSTORE PUSH1 0x1 PUSH1 0x1 PUSH1 0xA0 SHL SUB DUP7 AND PUSH1 0x4 MSTORE PUSH1 0x24 DUP6 SWAP1 MSTORE SWAP2 PUSH1 0x20 DUP4 PUSH1 0x44 DUP2 DUP1 DUP12 GAS CALL SWAP3 POP PUSH1 0x1 PUSH1 0x0 MLOAD EQ DUP4 AND PUSH2 0xC52 JUMPI DUP4 DUP4 ISZERO AND ISZERO PUSH2 0xC45 JUMPI RETURNDATASIZE PUSH1 0x0 DUP3 RETURNDATACOPY RETURNDATASIZE DUP2 REVERT JUMPDEST PUSH1 0x0 DUP8 EXTCODESIZE GT RETURNDATASIZE ISZERO AND DUP4 AND SWAP3 POP JUMPDEST PUSH1 0x40 MSTORE POP SWAP5 SWAP4 POP POP POP POP JUMP JUMPDEST PUSH32 0x9B779B17422D0DF92223018B32B4D1FA46E071723D6817E2486D003BECC55F00 SLOAD PUSH1 0x2 SUB PUSH2 0x7D5 JUMPI PUSH1 0x40 MLOAD PUSH4 0x3EE5AEB5 PUSH1 0xE0 SHL DUP2 MSTORE PUSH1 0x4 ADD PUSH1 0x40 MLOAD DUP1 SWAP2 SUB SWAP1 REVERT JUMPDEST DUP1 CALLDATALOAD PUSH1 0x1 PUSH1 0x1 PUSH1 0xA0 SHL SUB DUP2 AND DUP2 EQ PUSH2 0xCB7 JUMPI PUSH1 0x0 DUP1 REVERT JUMPDEST SWAP2 SWAP1 POP JUMP JUMPDEST PUSH1 0x0 DUP1 PUSH1 0x0 PUSH1 0x60 DUP5 DUP7 SUB SLT ISZERO PUSH2 0xCD1 JUMPI PUSH1 0x0 DUP1 REVERT JUMPDEST PUSH2 0xCDA DUP5 PUSH2 0xCA0 JUMP JUMPDEST SWAP3 POP PUSH2 0xCE8 PUSH1 0x20 DUP6 ADD PUSH2 0xCA0 JUMP JUMPDEST SWAP2 POP PUSH1 0x40 DUP5 ADD CALLDATALOAD SWAP1 POP SWAP3 POP SWAP3 POP SWAP3 JUMP JUMPDEST PUSH1 0x0 DUP1 PUSH1 0x40 DUP4 DUP6 SUB SLT ISZERO PUSH2 0xD0B JUMPI PUSH1 0x0 DUP1 REVERT JUMPDEST PUSH2 0xD14 DUP4 PUSH2 0xCA0 JUMP JUMPDEST SWAP5 PUSH1 0x20 SWAP4 SWAP1 SWAP4 ADD CALLDATALOAD SWAP4 POP POP POP JUMP JUMPDEST PUSH1 0x0 PUSH1 0x20 DUP3 DUP5 SUB SLT ISZERO PUSH2 0xD34 JUMPI PUSH1 0x0 DUP1 REVERT JUMPDEST PUSH2 0xD3D DUP3 PUSH2 0xCA0 JUMP JUMPDEST SWAP4 SWAP3 POP POP POP JUMP JUMPDEST PUSH1 0x0 DUP1 PUSH1 0x40 DUP4 DUP6 SUB SLT ISZERO PUSH2 0xD57 JUMPI PUSH1 0x0 DUP1 REVERT JUMPDEST PUSH2 0xD60 DUP4 PUSH2 0xCA0 JUMP JUMPDEST SWAP2 POP PUSH2 0xD6E PUSH1 0x20 DUP5 ADD PUSH2 0xCA0 JUMP JUMPDEST SWAP1 POP SWAP3 POP SWAP3 SWAP1 POP JUMP JUMPDEST PUSH1 0x0 PUSH1 0x20 DUP3 DUP5 SUB SLT ISZERO PUSH2 0xD89 JUMPI PUSH1 0x0 DUP1 REVERT JUMPDEST POP CALLDATALOAD SWAP2 SWAP1 POP JUMP JUMPDEST PUSH1 0x0 DUP1 PUSH1 0x0 PUSH1 0x60 DUP5 DUP7 SUB SLT ISZERO PUSH2 0xDA5 JUMPI PUSH1 0x0 DUP1 REVERT JUMPDEST PUSH2 0xDAE DUP5 PUSH2 0xCA0 JUMP JUMPDEST SWAP3 POP PUSH1 0x20 DUP5 ADD CALLDATALOAD SWAP2 POP PUSH1 0x40 DUP5 ADD CALLDATALOAD DUP1 ISZERO ISZERO DUP2 EQ PUSH2 0xDCA JUMPI PUSH1 0x0 DUP1 REVERT JUMPDEST DUP1 SWAP2 POP POP SWAP3 POP SWAP3 POP SWAP3 JUMP JUMPDEST PUSH1 0x20 DUP1 DUP3 MSTORE DUP3 MLOAD DUP3 DUP3 ADD DUP2 SWAP1 MSTORE PUSH1 0x0 SWAP2 SWAP1 DUP5 DUP3 ADD SWAP1 PUSH1 0x40 DUP6 ADD SWAP1 DUP5 JUMPDEST DUP2 DUP2 LT ISZERO PUSH2 0xE16 JUMPI DUP4 MLOAD PUSH1 0x1 PUSH1 0x1 PUSH1 0xA0 SHL SUB AND DUP4 MSTORE SWAP3 DUP5 ADD SWAP3 SWAP2 DUP5 ADD SWAP2 PUSH1 0x1 ADD PUSH2 0xDF1 JUMP JUMPDEST POP SWAP1 SWAP7 SWAP6 POP POP POP POP POP POP JUMP JUMPDEST PUSH1 0x0 PUSH1 0x20 DUP3 DUP5 SUB SLT ISZERO PUSH2 0xE34 JUMPI PUSH1 0x0 DUP1 REVERT JUMPDEST POP MLOAD SWAP2 SWAP1 POP JUMP INVALID LOG2 PUSH5 0x6970667358 0x22 SLT KECCAK256 0xAF 0xCC 0xBE 0xA8 0xB3 SIGNEXTEND DUP13 0xEB MULMOD 0xDA 0x21 SDIV SWAP4 0xB8 ISZERO 0x4C PUSH0 SSTORE 0xB3 0x4C 0xF8 0xE8 EQ PUSH29 0x822563CFAE42CE5564736F6C6343000818003300000000000000000000 "},"methodIdentifiers":{"canClaim(address,address)":"a617e653","claim(address)":"1e83409a","configureToken(address,uint256,bool)":"ca2d29be","disableToken(address)":"23e27a64","getSupportedTokens()":"d3c7c2c7","hasClaimed(address,address)":"89266f60","owner()":"8da5cb5b","renounceOwnership()":"715018a6","supportedTokens(uint256)":"c6255626","tokenConfigs(address)":"1b69dc5f","transferOwnership(address)":"f2fde38b","withdrawNative(address,uint256)":"07b18bde","withdrawToken(address,address,uint256)":"01e33667"}}}}}