{
  "_format": "hh-sol-artifact-1",
  "contractName": "MultiTokenFaucet",
  "sourceName": "contracts/MultiTokenFaucet.sol",
  "abi": [
    {
      "inputs": [
        {
          "internalType": "address",
          "name": "initialOwner",
          "type": "address"
        }
      ],
      "stateMutability": "nonpayable",
      "type": "constructor"
    },
    {
      "inputs": [],
      "name": "AlreadyClaimed",
      "type": "error"
    },
    {
      "inputs": [],
      "name": "InsufficientFaucetBalance",
      "type": "error"
    },
    {
      "inputs": [],
      "name": "InvalidClaimAmount",
      "type": "error"
    },
    {
      "inputs": [],
      "name": "InvalidRecipientAddress",
      "type": "error"
    },
    {
      "inputs": [],
      "name": "InvalidTokenAddress",
      "type": "error"
    },
    {
      "inputs": [],
      "name": "InvalidWithdrawAmount",
      "type": "error"
    },
    {
      "inputs": [],
      "name": "NativeTransferFailed",
      "type": "error"
    },
    {
      "inputs": [
        {
          "internalType": "address",
          "name": "owner",
          "type": "address"
        }
      ],
      "name": "OwnableInvalidOwner",
      "type": "error"
    },
    {
      "inputs": [
        {
          "internalType": "address",
          "name": "account",
          "type": "address"
        }
      ],
      "name": "OwnableUnauthorizedAccount",
      "type": "error"
    },
    {
      "inputs": [],
      "name": "ReentrancyGuardReentrantCall",
      "type": "error"
    },
    {
      "inputs": [
        {
          "internalType": "address",
          "name": "token",
          "type": "address"
        }
      ],
      "name": "SafeERC20FailedOperation",
      "type": "error"
    },
    {
      "inputs": [],
      "name": "TokenAlreadyDisabled",
      "type": "error"
    },
    {
      "inputs": [],
      "name": "TokenNotEnabled",
      "type": "error"
    },
    {
      "inputs": [],
      "name": "UnsupportedToken",
      "type": "error"
    },
    {
      "anonymous": false,
      "inputs": [
        {
          "indexed": true,
          "internalType": "address",
          "name": "user",
          "type": "address"
        },
        {
          "indexed": true,
          "internalType": "address",
          "name": "token",
          "type": "address"
        },
        {
          "indexed": false,
          "internalType": "uint256",
          "name": "amount",
          "type": "uint256"
        }
      ],
      "name": "Claimed",
      "type": "event"
    },
    {
      "anonymous": false,
      "inputs": [
        {
          "indexed": true,
          "internalType": "address",
          "name": "to",
          "type": "address"
        },
        {
          "indexed": false,
          "internalType": "uint256",
          "name": "amount",
          "type": "uint256"
        }
      ],
      "name": "NativeWithdrawn",
      "type": "event"
    },
    {
      "anonymous": false,
      "inputs": [
        {
          "indexed": true,
          "internalType": "address",
          "name": "previousOwner",
          "type": "address"
        },
        {
          "indexed": true,
          "internalType": "address",
          "name": "newOwner",
          "type": "address"
        }
      ],
      "name": "OwnershipTransferred",
      "type": "event"
    },
    {
      "anonymous": false,
      "inputs": [
        {
          "indexed": true,
          "internalType": "address",
          "name": "token",
          "type": "address"
        },
        {
          "indexed": false,
          "internalType": "uint256",
          "name": "claimAmount",
          "type": "uint256"
        },
        {
          "indexed": false,
          "internalType": "bool",
          "name": "enabled",
          "type": "bool"
        }
      ],
      "name": "TokenConfigured",
      "type": "event"
    },
    {
      "anonymous": false,
      "inputs": [
        {
          "indexed": true,
          "internalType": "address",
          "name": "token",
          "type": "address"
        }
      ],
      "name": "TokenDisabled",
      "type": "event"
    },
    {
      "anonymous": false,
      "inputs": [
        {
          "indexed": true,
          "internalType": "address",
          "name": "token",
          "type": "address"
        },
        {
          "indexed": true,
          "internalType": "address",
          "name": "to",
          "type": "address"
        },
        {
          "indexed": false,
          "internalType": "uint256",
          "name": "amount",
          "type": "uint256"
        }
      ],
      "name": "TokenWithdrawn",
      "type": "event"
    },
    {
      "inputs": [
        {
          "internalType": "address",
          "name": "user",
          "type": "address"
        },
        {
          "internalType": "address",
          "name": "token",
          "type": "address"
        }
      ],
      "name": "canClaim",
      "outputs": [
        {
          "internalType": "bool",
          "name": "",
          "type": "bool"
        }
      ],
      "stateMutability": "view",
      "type": "function"
    },
    {
      "inputs": [
        {
          "internalType": "address",
          "name": "token",
          "type": "address"
        }
      ],
      "name": "claim",
      "outputs": [],
      "stateMutability": "nonpayable",
      "type": "function"
    },
    {
      "inputs": [
        {
          "internalType": "address",
          "name": "token",
          "type": "address"
        },
        {
          "internalType": "uint256",
          "name": "claimAmount",
          "type": "uint256"
        },
        {
          "internalType": "bool",
          "name": "enabled",
          "type": "bool"
        }
      ],
      "name": "configureToken",
      "outputs": [],
      "stateMutability": "nonpayable",
      "type": "function"
    },
    {
      "inputs": [
        {
          "internalType": "address",
          "name": "token",
          "type": "address"
        }
      ],
      "name": "disableToken",
      "outputs": [],
      "stateMutability": "nonpayable",
      "type": "function"
    },
    {
      "inputs": [],
      "name": "getSupportedTokens",
      "outputs": [
        {
          "internalType": "address[]",
          "name": "",
          "type": "address[]"
        }
      ],
      "stateMutability": "view",
      "type": "function"
    },
    {
      "inputs": [
        {
          "internalType": "address",
          "name": "",
          "type": "address"
        },
        {
          "internalType": "address",
          "name": "",
          "type": "address"
        }
      ],
      "name": "hasClaimed",
      "outputs": [
        {
          "internalType": "bool",
          "name": "",
          "type": "bool"
        }
      ],
      "stateMutability": "view",
      "type": "function"
    },
    {
      "inputs": [],
      "name": "owner",
      "outputs": [
        {
          "internalType": "address",
          "name": "",
          "type": "address"
        }
      ],
      "stateMutability": "view",
      "type": "function"
    },
    {
      "inputs": [],
      "name": "renounceOwnership",
      "outputs": [],
      "stateMutability": "nonpayable",
      "type": "function"
    },
    {
      "inputs": [
        {
          "internalType": "uint256",
          "name": "",
          "type": "uint256"
        }
      ],
      "name": "supportedTokens",
      "outputs": [
        {
          "internalType": "address",
          "name": "",
          "type": "address"
        }
      ],
      "stateMutability": "view",
      "type": "function"
    },
    {
      "inputs": [
        {
          "internalType": "address",
          "name": "",
          "type": "address"
        }
      ],
      "name": "tokenConfigs",
      "outputs": [
        {
          "internalType": "bool",
          "name": "supported",
          "type": "bool"
        },
        {
          "internalType": "bool",
          "name": "enabled",
          "type": "bool"
        },
        {
          "internalType": "uint256",
          "name": "claimAmount",
          "type": "uint256"
        }
      ],
      "stateMutability": "view",
      "type": "function"
    },
    {
      "inputs": [
        {
          "internalType": "address",
          "name": "newOwner",
          "type": "address"
        }
      ],
      "name": "transferOwnership",
      "outputs": [],
      "stateMutability": "nonpayable",
      "type": "function"
    },
    {
      "inputs": [
        {
          "internalType": "address",
          "name": "to",
          "type": "address"
        },
        {
          "internalType": "uint256",
          "name": "amount",
          "type": "uint256"
        }
      ],
      "name": "withdrawNative",
      "outputs": [],
      "stateMutability": "nonpayable",
      "type": "function"
    },
    {
      "inputs": [
        {
          "internalType": "address",
          "name": "token",
          "type": "address"
        },
        {
          "internalType": "address",
          "name": "to",
          "type": "address"
        },
        {
          "internalType": "uint256",
          "name": "amount",
          "type": "uint256"
        }
      ],
      "name": "withdrawToken",
      "outputs": [],
      "stateMutability": "nonpayable",
      "type": "function"
    },
    {
      "stateMutability": "payable",
      "type": "receive"
    }
  ],
  "bytecode": "0x608060405234801561001057600080fd5b50604051610f92380380610f9283398101604081905261002f916100e2565b806001600160a01b03811661005e57604051631e4fbdf760e01b81526000600482015260240160405180910390fd5b61006781610092565b5060017f9b779b17422d0df92223018b32b4d1fa46e071723d6817e2486d003becc55f005550610112565b600080546001600160a01b038381166001600160a01b0319831681178455604051919092169283917f8be0079c531659141344cd1fd0a4f28419497f9722a3daafe3b4186f6b6457e09190a35050565b6000602082840312156100f457600080fd5b81516001600160a01b038116811461010b57600080fd5b9392505050565b610e71806101216000396000f3fe6080604052600436106100c65760003560e01c806389266f601161007f578063c625562611610059578063c625562614610269578063ca2d29be14610289578063d3c7c2c7146102a9578063f2fde38b146102cb57600080fd5b806389266f60146101cc5780638da5cb5b14610217578063a617e6531461024957600080fd5b806301e33667146100d257806307b18bde146100f45780631b69dc5f146101145780631e83409a1461017757806323e27a6414610197578063715018a6146101b757600080fd5b366100cd57005b600080fd5b3480156100de57600080fd5b506100f26100ed366004610cbc565b6102eb565b005b34801561010057600080fd5b506100f261010f366004610cf8565b6103c8565b34801561012057600080fd5b5061015561012f366004610d22565b6001602081905260009182526040909120805491015460ff808316926101009004169083565b6040805193151584529115156020840152908201526060015b60405180910390f35b34801561018357600080fd5b506100f2610192366004610d22565b6104d4565b3480156101a357600080fd5b506100f26101b2366004610d22565b6106fa565b3480156101c357600080fd5b506100f26107c3565b3480156101d857600080fd5b506102076101e7366004610d44565b600260209081526000928352604080842090915290825290205460ff1681565b604051901515815260200161016e565b34801561022357600080fd5b506000546001600160a01b03165b6040516001600160a01b03909116815260200161016e565b34801561025557600080fd5b50610207610264366004610d44565b6107d7565b34801561027557600080fd5b50610231610284366004610d77565b6108f5565b34801561029557600080fd5b506100f26102a4366004610d90565b61091f565b3480156102b557600080fd5b506102be610a71565b60405161016e9190610dd5565b3480156102d757600080fd5b506100f26102e6366004610d22565b610ad3565b6102f3610b13565b6001600160a01b03831661031a57604051630f58058360e11b815260040160405180910390fd5b6001600160a01b0382166103415760405163226ccff560e11b815260040160405180910390fd5b8060000361036257604051630db73cdf60e41b815260040160405180910390fd5b6103766001600160a01b0384168383610b40565b816001600160a01b0316836001600160a01b03167f8210728e7c071f615b840ee026032693858fbcd5e5359e67e438c890f59e5620836040516103bb91815260200190565b60405180910390a3505050565b6103d0610b13565b6001600160a01b0382166103f75760405163226ccff560e11b815260040160405180910390fd5b8060000361041857604051630db73cdf60e41b815260040160405180910390fd5b6000826001600160a01b03168260405160006040518083038185875af1925050503d8060008114610465576040519150601f19603f3d011682016040523d82523d6000602084013e61046a565b606091505b505090508061048c57604051633d2cec6f60e21b815260040160405180910390fd5b826001600160a01b03167fc303ca808382409472acbbf899c316cf439f409f6584aae22df86dfa3c9ed504836040516104c791815260200190565b60405180910390a2505050565b6104dc610b7a565b6001600160a01b0381166000908152600160208181526040928390208351606081018552815460ff80821615158084526101009092041615159382019390935292015492820192909252906105445760405163350b944160e11b815260040160405180910390fd5b806020015161056657604051631fcf8c4760e11b815260040160405180910390fd5b3360009081526002602090815260408083206001600160a01b038616845290915290205460ff16156105ab57604051630c8d9eab60e31b815260040160405180910390fd5b6040516370a0823160e01b81523060048201526000906001600160a01b038416906370a0823190602401602060405180830381865afa1580156105f2573d6000803e3d6000fd5b505050506040513d601f19601f820116820180604052508101906106169190610e22565b9050816040015181101561063d576040516325bab55360e01b815260040160405180910390fd5b3360008181526002602090815260408083206001600160a01b038816808552925291829020805460ff191660011790559084015161067b9290610b40565b826001600160a01b0316336001600160a01b03167ff7a40077ff7a04c7e61f6f26fb13774259ddf1b6bce9ecf26a8276cdd399268384604001516040516106c491815260200190565b60405180910390a350506106f760017f9b779b17422d0df92223018b32b4d1fa46e071723d6817e2486d003becc55f0055565b50565b610702610b13565b6001600160a01b03811660009081526001602052604090205460ff1661073b5760405163350b944160e11b815260040160405180910390fd5b6001600160a01b038116600090815260016020526040902054610100900460ff16610779576040516368d8b53560e01b815260040160405180910390fd5b6001600160a01b038116600081815260016020526040808220805461ff0019169055517f1fac2d788f45089e4f2b9e3484b1163143fdeab5eb480ab9a44b459d2dc476a29190a250565b6107cb610b13565b6107d56000610ba8565b565b6001600160a01b03811660009081526001602081815260408084208151606081018352815460ff8082161515808452610100909204161515948201949094529301549083015261082b5760009150506108ef565b806020015161083e5760009150506108ef565b6001600160a01b0380851660009081526002602090815260408083209387168352929052205460ff16156108765760009150506108ef565b6040516370a0823160e01b81523060048201526000906001600160a01b038516906370a0823190602401602060405180830381865afa1580156108bd573d6000803e3d6000fd5b505050506040513d601f19601f820116820180604052508101906108e19190610e22565b604090920151909110159150505b92915050565b6003818154811061090557600080fd5b6000918252602090912001546001600160a01b0316905081565b610927610b13565b6001600160a01b03831661094e57604051630f58058360e11b815260040160405180910390fd5b8160000361096f5760405163843ce46b60e01b815260040160405180910390fd5b6001600160a01b03831660009081526001602052604090205460ff166109db57600380546001810182556000919091527fc2575a0e9e593c00f959f8c92f12db2869c3395a3b0502d05e2516446f71f85b0180546001600160a01b0319166001600160a01b0385161790555b60408051606081018252600180825283151560208084018281528486018881526001600160a01b038a16600081815286855288902096518754935161ffff1990941690151561ff0019161761010093151593909302929092178655519490930193909355835186815292830152917fea38537c2477bc273187c7158c75d0afe60cfcd0a107a8249105eb00b8d0750291016104c7565b60606003805480602002602001604051908101604052809291908181526020018280548015610ac957602002820191906000526020600020905b81546001600160a01b03168152600190910190602001808311610aab575b5050505050905090565b610adb610b13565b6001600160a01b038116610b0a57604051631e4fbdf760e01b8152600060048201526024015b60405180910390fd5b6106f781610ba8565b6000546001600160a01b031633146107d55760405163118cdaa760e01b8152336004820152602401610b01565b610b4d8383836001610bf8565b610b7557604051635274afe760e01b81526001600160a01b0384166004820152602401610b01565b505050565b610b82610c5e565b60027f9b779b17422d0df92223018b32b4d1fa46e071723d6817e2486d003becc55f0055565b600080546001600160a01b038381166001600160a01b0319831681178455604051919092169283917f8be0079c531659141344cd1fd0a4f28419497f9722a3daafe3b4186f6b6457e09190a35050565b60405163a9059cbb60e01b60008181526001600160a01b038616600452602485905291602083604481808b5af192506001600051148316610c52578383151615610c45573d6000823e3d81fd5b6000873b113d1516831692505b60405250949350505050565b7f9b779b17422d0df92223018b32b4d1fa46e071723d6817e2486d003becc55f00546002036107d557604051633ee5aeb560e01b815260040160405180910390fd5b80356001600160a01b0381168114610cb757600080fd5b919050565b600080600060608486031215610cd157600080fd5b610cda84610ca0565b9250610ce860208501610ca0565b9150604084013590509250925092565b60008060408385031215610d0b57600080fd5b610d1483610ca0565b946020939093013593505050565b600060208284031215610d3457600080fd5b610d3d82610ca0565b9392505050565b60008060408385031215610d5757600080fd5b610d6083610ca0565b9150610d6e60208401610ca0565b90509250929050565b600060208284031215610d8957600080fd5b5035919050565b600080600060608486031215610da557600080fd5b610dae84610ca0565b92506020840135915060408401358015158114610dca57600080fd5b809150509250925092565b6020808252825182820181905260009190848201906040850190845b81811015610e165783516001600160a01b031683529284019291840191600101610df1565b50909695505050505050565b600060208284031215610e3457600080fd5b505191905056fea2646970667358221220afccbea8b30b8ceb09da210593b8154c5f55b34cf8e8147c822563cfae42ce5564736f6c63430008180033",
  "linkReferences": {},
  "deployedLinkReferences": {}
}